:100000000C9456000C9473000C9473000C947300C1
:100010000C9473000C9473000C9473000C94730094
:100020000C9473000C9473000C9473000C94730084
:100030000C9473000C9473000C9473000C94730074
:100040000C9473000C9473000C9473000C94730064
:100050000C9473000C9473000C9473000C94730054
:100060000C9473000C9473000C9473000C94730044
:100070000C9473000C9473000C9473000C94730034
:100080000C9473000C9473000C9473000C94730024
:100090000C9473000C9473000C9473000C94730014
:1000A0000C9473000C9473000C94730011241FBE05
:1000B000CFEFDAE0DEBFCDBF12E0A0E0B1E0EEE9C5
:1000C000FBE002C005900D92A234B107D9F722E0FF
:1000D000A2E4B2E001C01D92A334B207E1F70E948E
:1000E000F9000C94CD050C94000094EA9093BC00A8
:1000F00022E030E09091BC00992332F0F901319672
:10010000211531059F01B1F79091B900969596950B
:1001100096959850977F903009F049C090E490935D
:10012000BB0094E89093BC0022E030E09091BC00CA
:10013000992332F0F9013196211531059F01B1F76C
:100140009091B900987F903C09F031C08093BB003A
:1001500084E88093BC0082E090E02091BC002223E0
:1001600032F0FC01319681159105CF01B1F78091F4
:10017000B900887F803CD9F46093BB0084E8809309
:10018000BC0082E090E02091BC00222332F0FC0110
:10019000319681159105CF01B1F78091B900887F23
:1001A000803C29F484E98093BC00812D01C081E06A
:1001B000992708951F93812D612D0E94750080302D
:1001C00011F011E012C011E081E06FE70E947500AC
:1001D000803059F48DE06FE70E947500803089F718
:1001E00082E16FEF0E947500182F812F99271F91D0
:1001F00008952F923F924F925F926F927F928F92CB
:100200009F92AF92BF92CF92DF92EF92FF920F93A5
:100210001F93CF93DF93CDB7DEB7CD51D1400FB64B
:10022000F894DEBF0FBECDBF11E01093420280E80C
:100230008093610010926100569A84B18F6084B9F6
:1002400085B18F6085B98AB18C608AB98BB18C60B9
:100250008BB980B38C7080BB81B3836F81BB2698D0
:100260002E9A88E48093B8001092B90084E08093BD
:10027000BC000E94DA00082F80E090E0998F888F00
:100280009F8B8E8B9D8B8C8B5C019B8B8A8B1093B1
:10029000D70080E98093D80082E189BDCE014296E3
:1002A0009A83898389B581708030E1F38091D80089
:1002B0008F7D8093D8008091E0008E7F8093E00056
:1002C00088E08093E200D12CD98ACE014A9648EA90
:1002D00050E06D2D0E94690581E008275E9ACE01ED
:1002E0008E539F4F9E878D8707969C838B83CE016D
:1002F0008A5E9E4F9C878B870696988B8F8714E526
:10030000CD2CDE82CD828D2D8F83C5019A87898782
:100310008091E1008870803081F08091E100877FDA
:100320008093E1001092E90081E08093EB0010924D
:10033000EC0082E38093ED001F821092E90080912F
:10034000E8008870803009F47DC03091F100909110
:10035000F1008091F1002091F1004091F100409175
:10036000F1004091F1005091F1006091E800677F49
:100370006093E800632F6623BAF4642F7727452F34
:100380005527542F4427462B572B3038B9F0313896
:1003900009F053C0963009F050C0223209F04DC028
:1003A00082E092E060E458C33030E1F0313209F08D
:1003B00044C09A3089F09B3079F03FC0963009F400
:1003C00029C0983009F039C08091E80081708030F0
:1003D000D9F38F818093F1008091E8008E7F809324
:1003E000E80030C0953009F422C3993009F025C0E7
:1003F0008091E8008E7F8093E80081E08093E9009F
:100400008F838093EB0081EC8093EC0082E08093FB
:10041000ED0018C0213009F41CC3223009F415C3C3
:10042000233059F4803009F41FC3813009F418C314
:10043000823019F48CEB91E00EC38091EB00806266
:100440008093EB00E985FA85319681E0E115FA8722
:10045000E987F10509F0812D813051F401700030F8
:1004600011F001E005C00E94DA00082F81E00827A2
:10047000CD84DE84C60161E044E550E00E94690558
:10048000F6016B807C80C501782F892F25B12F6004
:1004900025B92BB12C602BB9733081054CF4711543
:1004A000810579F071306F01810589F44DEF10C03D
:1004B0007330810549F074306F01810559F44BEFB9
:1004C0000AC06F014EEF04C06F0147EF01C04BEF50
:1004D000A5E202C047EFABE2B0E0272F382FED8551
:1004E000FE852E0F3F1FF901E55AFF4F2C5A3F4F53
:1004F0002901982F872F01967C019C9194239C932E
:1005000094E100009A959030E1F72FB1922F93700B
:10051000269526952C73292B93B19074922BD30199
:10052000212D392F422F4A9512F03695FCCF31708C
:100530003C931E962395AE17BF0799F7013009F03B
:100540009CC061E07A9512F0660FFCCF8FE36827BC
:1005500082E10E947500803009F08FC088E20000BF
:100560008A958030E1F784EA8093BC0082E090E0D5
:100570002091BC00222332F0FC01319681159105B7
:10058000CF01B1F78091B900869586958695885000
:10059000877F803009F071C080E48093BB0084E8DD
:1005A0008093BC0082E090E02091BC00222332F0D6
:1005B000FC01319681159105CF01B1F78091B90009
:1005C000887F803C09F059C083E18093BB0084E8B8
:1005D0008093BC0082E090E02091BC00222332F0A6
:1005E000FC01319681159105CF01B1F78091B900D9
:1005F000887F803C09F041C084EA8093BC0082E09F
:1006000090E02091BC00222332F0FC01319681154C
:100610009105CF01B1F78091B900869586958695B1
:100620008850877F803009F028C081E48093BB0028
:1006300084E88093BC0082E090E02091BC002223FB
:1006400032F0FC01319681159105CF01B1F780910F
:10065000B900887F803C89F484E88093BC0082E004
:1006600090E02091BC00222332F0FC0131968115EC
:100670009105CF01B1F78091B900F601DF01812D1D
:100680009FE7282F2A9512F09695FCCF91709C93A6
:100690001E968395A415B50599F73196C301019669
:1006A0003C01C70186309105782F892F09F0EECEE5
:1006B00085B18F6085B98BB18C608BB99E01265E48
:1006C0003F4FFE01EE53FF4FD901C501AC019EE043
:1006D0005902802D11246A01499F912D1124980FF0
:1006E000492F5527542F4427802D9927842B952B4C
:1006F000820F931F0E96BF014F017D01FD01D401B2
:100700004D914D01DF01AC5ABF4F5081451741F467
:100710005C9153955C93553020F051E04527408320
:100720001C923196E817F90751F7FB013E96D70165
:100730001E96C60101968630910509F0C7CFBE010D
:10074000665E7F4FFB01A0E0B1E0C5016C019C013A
:100750009EE03902802D11243901299F912D112409
:10076000980F292F3327322F2227802D9927822B6C
:10077000932B860F971F0E967F014D0121912030FC
:1007800071F04C91403F58F0242F205F3327C21660
:10079000D30608F09601423F08F0960169011196D0
:1007A000E817F90759F7F7013E96D4011E96C301E1
:1007B00001968630910509F0CACF7B010887C501F3
:1007C0000FB6C252DF4F9FAF8EAFCE5DD0400FBE8F
:1007D0000FB6C452DF4F9FAF8EAFCC5DD0400FBE7F
:1007E0000FB6C652DF4F9FAF8EAFCA5DD0400FBE6F
:1007F0000FB6C852DF4F9FAF8EAFC85DD0400FBE5F
:10080000FC01DC019EE0B902802D1124A99F912DED
:100810001124980F892F9927982F8827202D332767
:10082000282B392BA701420F531F20503F4F19018E
:10083000119645012D013F01F401CF01DA01A80F06
:10084000B91F2C913196213009F02CC04F01F101D4
:10085000E80FF91F96012230310508F009C18E30EA
:10086000910508F00AC13102A02D1124219FB12D5C
:100870001124BA0F6B2F7727762F6627A02DBB2761
:10088000A62BB72BAE0FBF1F0C912115310519F008
:100890000030950101F30030F40121F0013011F036
:1008A000003F28F08D30910509F0C7CF2FC0202FD1
:1008B000287F203E51F4077021E06F857889F3018D
:1008C000D2010A9582F0220FFCCFF301E630F10548
:1008D00030F4AB85BC85AE0FBF1F0C9331966F858E
:1008E0007889D2010FC00FB6C252DF4F3EADCE5D48
:1008F000D0400FBE322B0FB6C252DF4F3EAFCE5D9F
:10090000D0400FBE8D30910529F094CF6F85788946
:10091000F301D201A630B10509F074CF8F81813087
:1009200009F07CC00FB6C252DF4F0EADCE5DD04095
:100930000FBE8D819E810817D1F40FB6C152DF4FD3
:100940008EADCF5DD0400FBE2D813E81831779F4EF
:10095000CE018A5E9E4F69817A8146E050E00E9416
:100960006C056F8578898115910509F457C081E080
:100970008093E90081E090E02091E800207220302F
:1009800051F4019621E08115910509F0212D217086
:10099000203091F343C00093F1000FB6C152DF4FF6
:1009A0008EADCF5DD0400FBE8093F100DE01AA5E18
:1009B000BE4F8D918093F100A617B707D1F78091B4
:1009C000E8008E778093E8000FB6C252DF4F8EADFD
:1009D0009FADCE5DD0400FBE9E838D83998F888F53
:1009E0000FB6C452DF4F8EAD9FADCC5DD0400FBE71
:1009F0009F8B8E8B0FB6C652DF4F8EAD9FADCA5DFB
:100A0000D0400FBE9D8B8C8B0FB6C852DF4F8EAD82
:100A10009FADC85DD0400FBE9B8B8A8B088580EA56
:100A20009FE00000019781159105D9F771CC909155
:100A3000E8009E7F9093E8009091E80091709030DC
:100A4000D9F380688093E300FDCC8EEC91E062E204
:100A500003C080EF91E062E170E00E944405F2CCB7
:100A60008CEA91E060E1F8CF88EA91E064E0F4CFAD
:100A700062E070E0C9010E9442056EE070E00E94F1
:100A80004205FFCF0E944105DC0146175707CA0106
:100A900008F0CB014115510589F02091E800217043
:100AA0002030D9F32D912093F10001978115910504
:100AB000C9F78091E8008E7F8093E8008091E8007C
:100AC00084708030D9F38091E8008B7F8093E800B8
:100AD00008950E94880508950E946F050895FA01FF
:100AE000DC01E11580E090E0F10589F0AD01DB016A
:100AF0002D91BD01DA013D91321719F43197E115BD
:100B0000F3CF422F5527832F9927841B950B0895E8
:100B10000F931F93FA019C01E031F10508F42DC0F9
:100B20008F01A90141705070C901840F951F2817CA
:100B3000390738F4DA01F90161931197A115B1056C
:100B4000D9F7D801A41BB50B8D01AE7FA80FB91F33
:100B50008A179B0770F4FB01F070AB01542F4427F8
:100B60004E2B5F2BFC015183408302968A179B0713
:100B7000C8F3F801E170F07001C0D901CD018E0F0A
:100B80009F1FA817B90728F46D933197E115F10558
:0E0B9000D9F7C9011F910F910895F894FFCF76
:100B9E002E1E1F202122292D2324252627002B142B
:100BAE001A0815172F301C180C121331E0041607F3
:100BBE00090A00000B0D0E0F3334E11D1B0619053B
:100BCE00F1F11110363738E535E2E3000000000090
:100BDE00000000E6000000002A4C000000000000AB
:100BEE00282C0000003A3B3C3D3E00003F40414275
:100BFE00430000000000000044450000000000001B
:100C0E0000000000000000005051524F0000000094
:100C1E0000000000000000000000000000000000C6
:100C2E0000000000000000000000000000000000B6
:100C3E00000000000000000004030904100345003A
:100C4E00720067006F0044006F00780012034B00C3
:100C5E006500790062006F00610072006400090295
:100C6E00220001010080320904000001030101008D
:100C7E000921110100012240000705810308000A25
:100C8E001201000200000040C0167E0401000102A5
:100C9E00000105010906A101050719E029E7150064
:100CAE00250175019508810295017508810195054B
:100CBE007501050819012905910295017503910128
:100CCE0095067508150026FF000507190029FF81F6
:020CDE0000C054
:00000001FF
