:100000000C9456000C9473000C9473000C947300C1
:100010000C9473000C9473000C9473000C94730094
:100020000C9473000C9473000C9473000C94730084
:100030000C9473000C9473000C9473000C94730074
:100040000C9473000C9473000C9473000C94730064
:100050000C9473000C9473000C9473000C94730054
:100060000C9473000C9473000C9473000C94730044
:100070000C9473000C9473000C9473000C94730034
:100080000C9473000C9473000C9473000C94730024
:100090000C9473000C9473000C9473000C94730014
:1000A0000C9473000C9473000C94730011241FBE05
:1000B000CFEFDAE0DEBFCDBF12E0A0E0B1E0E4EECA
:1000C000FDE002C005900D92A234B107D9F722E0FD
:1000D000A2E4B2E001C01D92A334B207E1F70E948E
:1000E000F3000C94F0060C94000024EA2093BC006A
:1000F00022E030E05091BC00552332F0F9013196F6
:10010000211531059F01B1F72091B9002851203FF9
:1001100018F481E099270895FC018181880F80936C
:10012000BB0084E88093BC0082E090E02091BC009A
:10013000222332F0FC01319681159105CF01B1F7F0
:100140008091B900887F883121F0803411F08832A5
:1001500001F76093BB0084E88093BC0082E090E0EC
:100160002091BC00222332F0FC01319681159105CB
:10017000CF01B1F78091B900887F883129F08034B0
:1001800019F0883209F0C5CF4093BB0084E8809312
:10019000BC0082E090E02091BC00222332F0FC0100
:1001A000319681159105CF01B1F78091B900887F13
:1001B000883129F0803419F0883209F0AACF84E917
:1001C0008093BC0022E030E08091BC0080718030E0
:1001D00041F0C9010196211531059C01812DA1F73E
:1001E00099CF812D97CF2F923F924F925F926F922E
:1001F0007F928F929F92AF92BF92CF92DF92EF92B7
:10020000FF920F931F93CF93DF93CDB7DEB7C35207
:10021000D1400FB6F894DEBF0FBECDBF81E0809312
:10022000420280E88093610010926100569A84B186
:100230008F6084B985B18F6085B98AB18C608AB9C5
:100240008BB18C608BB93E9A469A80B38C7080BB20
:1002500081B3836F81BBE0E0F0E080EA9FE05F0163
:10026000DC0100001197A115B105D9F73196E436EC
:10027000F105B1F71E8A1C8A88E48093B8001092B9
:10028000B90084E08093BC0042E050E0112D012FC2
:1002900000620D8B84EA8093BC00CA012091BC00EF
:1002A000222332F0FC01319681159105CF01B1F77F
:1002B0008091B90088508031812DE8F4802F880F1B
:1002C0008093BB0084E88093BC00CA012091BC00ED
:1002D000222332F0FC01319681159105CF01B1F74F
:1002E0009091B900987F81E0983129F0983219F007
:1002F000903409F0812D139594E99093BC009A01F4
:100300009091BC009071903031F0F9013196211537
:1003100031059F01A9F79A019091BC00907190302E
:1003200031F0F9013196211531059F01A9F780308F
:1003300009F426C0CE014496612D7A01412D0E9418
:100340007500A7018030E1F4CE01449661E04FEFE3
:100350000E947500A701803099F4CE0144966DE0AB
:100360004FEF0E947500A701803051F4CE014496F2
:1003700062E14FEF0E947500A701803009F46AC462
:10038000183009F084CF0EE4812DD82EC5019F8F3F
:100390008E8F9D8F8C8F9B8F8A8F998F888F81E016
:1003A0008093D70080E98093D80082E189BDCE0197
:1003B00048969A83898389B581708030E1F3809172
:1003C000D8008F7D8093D8008091E0008E7F80934D
:1003D000E00088E08093E200F12CFF8ACE01809655
:1003E00048EA50E06F2D0E948E065E9ACE01885337
:1003F0009F4FFC013796FC83EB83998B888B8C5A3B
:100400009F4F9F878E879E01245E3E4F3B872A87A2
:10041000C90106969B8B8A8B0C8701600F8311E0C4
:1004200004E5EF2C2F2D2887FE82ED828F2D8D87FE
:100430002D2C8091E1008870803079F08091E1006E
:10044000877F8093E1001092E9001093EB001092F7
:10045000EC0082E38093ED0018861092E900809111
:10046000E8008870803009F494C03091F1009091D8
:10047000F1008091F1002091F1004091F100409154
:10048000F1004091F1005091F1006091E800677F28
:100490006093E800632F66236AF0303009F422C0CD
:1004A000313209F437C0303409F06EC09F3F09F48F
:1004B000D5C36AC0642F7727452F5527542F44276B
:1004C000462B572B303809F42AC0313809F05CC06C
:1004D000963009F059C0223209F056C082E092E00D
:1004E00060E4A3C3953009F42EC0993009F04CC0E4
:1004F0008091E8008E7F8093E80081E08093E9009E
:1005000088878093EB0081EC8093EC0082E08093FD
:10051000ED003FC09A3089F09B3079F035C09630BD
:1005200009F41FC0983009F02FC08091E800817055
:100530008030D9F388858093F1008091E8008E7F28
:100540008093E80026C09091E8009E7F9093E80099
:100550009091E80091709030D9F380688093E30027
:1005600018C0213009F45AC3223009F45BC3233088
:1005700059F4803009F45DC3813009F45EC38230E0
:1005800019F48CEB91E04CC38091EB008062809376
:10059000EB00E889F9898EE090E06C01CF0161E021
:1005A000A6017F010E948E06F7013E968E859F85EB
:1005B000E817F90799F78B819C81F50125B12F6028
:1005C00025B92BB12C602BB9469AE330F10544F0E4
:1005D000E530F1056CF4E330F105A1F447EF10C00C
:1005E000E115F10551F0E130F10549F44DEF08C096
:1005F000E530F10551F447EF06C04EEF01C04BEF77
:10060000A5E205C04BEFABE202C04FEBA8E2B0E0C1
:100610009F0168897989260F371F255A3F4F3196E8
:100620005C9154235C9344E100004A954030E1F72B
:100630004FB1542F5370469546954C73452B512D11
:10064000DC01642F752F7A9512F06695FCCF6170EE
:100650006C9353951E96A217B30799F70196E7304E
:10066000F10509F0ABCF85B18F6085B98BB18C6096
:100670008BB9469AFE01E853FF4FDF013501622D29
:10068000613041F4C30187704EEF8A952AF0440F20
:10069000411DFBCF8FEF1DC04D016F01CE01449670
:1006A00062E10E9475008030B1F02D85239561E0F4
:1006B000203091E0F601D40109F0912D8FEF9030B8
:1006C0009FEF09F4922F9E8B9A3008F4AFC01C8ADA
:1006D0009D87612DACC088E242E050E000008A9521
:1006E0008030E1F784EA8093BC00CA01D4012091F4
:1006F000BC00222332F0FC01319681159105CF0117
:10070000B1F78091B9008851803F08F4ADC08C8565
:100710008093BB0084E88093BC00CA012091BC0098
:10072000222332F0FC01319681159105CF01B1F7FA
:100730008091B900887F883129F0803419F088329F
:1007400009F092C083E18093BB0084E88093BC00F1
:10075000CA012091BC00222332F0FC0131968115A0
:100760009105CF01B1F78091B900887F883129F0D8
:10077000803419F0883209F077C084EA8093BC0095
:10078000CA012091BC00222332F0FC013196811570
:100790009105CF01B1F78091B9008851803F08F4ED
:1007A00063C08F818093BB0084E88093BC00CA0142
:1007B0002091BC00222332F0FC0131968115910575
:1007C000CF01B1F78091B900887F883129F080345A
:1007D00019F0883209F048C084E88093BC00CA014F
:1007E0002091BC00222332F0FC0131968115910545
:1007F000CF01B1F78091B900887F883509F034C006
:100800008091BB0094E99093BC009A019091BC0048
:100810009071903031F0F9013196211531059F0129
:10082000A9F71E8A61E01D86F60101C09D8793012C
:100830002E0F3F1F2C5A3F4F912D6D01482F592FDE
:100840005A9512F04695FCCF41704C9393951E96A5
:10085000A217B30799F7D6011196C3010196873005
:100860003C01910579F00CCF2D85239561E0203076
:1008700091E009F0912D8FEF90309FEFF60109F490
:1008800021CF21CF6030698731F0CE01449662E1FB
:100890004FEF0E9475009E01205E3F4FFE01E8531E
:1008A000FF4FD901C501AC019EE05902802D1124F2
:1008B0006A01499F912D1124980F492F5527542FD4
:1008C0004427802D9927842B952B820F931F0E96FA
:1008D000BF014F017D01FD01D4014D914D01DF01AB
:1008E000AC5ABF4F5081451739F45C9153955C93D6
:1008F000553018F0412740831C923196E817F907CC
:1009000059F7FB013E96D7011E96C6010196863027
:10091000910509F0C8CFBE01605E7F4FFB01A0E0EA
:10092000B1E0C5016C019C019EE03902802D1124CB
:100930003901299F912D1124980F292F3327322F08
:100940002227802D9927822B932B860F971F0E9697
:100950007F014D012191203071F04C91403F58F0C2
:10096000242F205F3327C216D30608F09601423F9A
:1009700008F0960169011196E817F90759F7F70190
:100980003E96D4011E96C30101968630910509F06A
:10099000CACF4B01C5010FB6CC51DF4F9FAF8EAF11
:1009A000C45ED0400FBE0FB6CE51DF4F9FAF8EAFAB
:1009B000C25ED0400FBE0FB6C052DF4F9FAF8EAFAA
:1009C000C05ED0400FBE0FB6C252DF4F9FAF8EAF9A
:1009D000CE5DD0400FBEFC01DC019EE0B902802D4F
:1009E0001124A99F912D1124980F892F9927982FB1
:1009F0008827202D3327282B392BA401420F531F82
:100A000020503F4F1901119675012D013F01F7014B
:100A1000CF01DA01A80FB91F2C913196213009F0CE
:100A20002CC07F01F101E80FF91F9601223031053A
:100A300008F007C18E30910508F008C13002A02DE2
:100A40001124209FB12D1124BA0F6B2F7727762FF9
:100A50006627A02DBB27A62BB72BAE0FBF1F1C915F
:100A60002115310519F01030950101F31030F7010F
:100A700021F0113011F0103F28F08D30910509F070
:100A8000C7CF2FC0212F287F203E51F4177021E0BF
:100A90006A897B89F301D2011A9582F0220FFCCF7B
:100AA000F301E630F10530F4AA85BB85AE0FBF1F18
:100AB0001C9331966A897B89D2010FC00FB6CC5145
:100AC000DF4F3EADC45ED0400FBE322B0FB6CC51CF
:100AD000DF4F3EAFC45ED0400FBE8D30910529F090
:100AE00094CF6A897B89F301D201A630B10509F060
:100AF00074CF8885813009F07EC00FB6CC51DF4FAE
:100B00001EADC45ED0400FBE8D819E811817D1F4FA
:100B10000FB6CB51DF4F8EADC55ED0400FBE2D81DD
:100B20003E81831779F4CE01845E9E4F69817A817C
:100B300046E050E00E948B066A897B898115910509
:100B400009F459C081E0382F8093E90081E090E0FA
:100B50002091E8002072203059F4019621E081159F
:100B6000910509F0212D2170203091F3132F44C0FD
:100B70001093F1000FB6CB51DF4F8EADC55ED04064
:100B80000FBE8093F100DE01A45EBE4F8D91809375
:100B9000F100A617B707D1F78091E8008E77809310
:100BA000E8000FB6CC51DF4F8EAD9FADC45ED04094
:100BB0000FBE9E838D839F8F8E8F0FB6CE51DF4FDA
:100BC0008EAD9FADC25ED0400FBE9D8F8C8F0FB695
:100BD000C052DF4F8EAD9FADC05ED0400FBE9B8F29
:100BE0008A8F0FB6C252DF4F8EAD9FADCE5DD04023
:100BF0000FBE998F888F11E08BB18F7B2984922D46
:100C00009295907F990F990F982B9BB980EA9FE05E
:100C10000000019781159105D9F70BCC80EF91E089
:100C200062E103C08EEC91E062E270E00E9438065F
:100C3000B0CC88EA91E064E0F8CF8CEA91E060E122
:100C4000F4CF62E070E0C9010E9436066EE070E009
:100C50000E94360681E08C8B000F97CB8091E800D4
:100C60008E7F8093E8000E945D06FFCF0E943506CC
:100C7000DC0146175707CA0108F0CB0141155105A1
:100C800089F02091E80021702030D9F32D91209334
:100C9000F100019781159105C9F78091E8008E7FD9
:100CA0008093E8008091E80084708030D9F38091CF
:100CB000E8008B7F8093E8000895F89481E08093AA
:100CC000E00080E28093D80080E29EE4000001977B
:100CD00081159105D9F71DBA1CBC10BE1FBA109220
:100CE0007A0010926E0010926F00109271001092B4
:100CF00072001092C9001092BC0014B815B817B851
:100D000018B81AB81BB81DB81EB810BA11BA0C948E
:100D1000003F0E9491060E94920608950E94AB0631
:100D20000895FFCFFA01DC01E11580E090E0F105C4
:100D300089F0AD01DB012D91BD01DA013D91321742
:100D400019F43197E115F3CF422F5527832F9927B7
:100D5000841B950B08950F931F93FA019C01E031BA
:100D6000F10508F42DC08F01A90141705070C9012F
:100D7000840F951F2817390738F4DA01F9016193B8
:100D80001197A115B105D9F7D801A41BB50B8D0199
:100D9000AE7FA80FB91F8A179B0770F4FB01F07094
:100DA000AB01542F44274E2B5F2BFC015183408312
:100DB00002968A179B07C8F3F801E170F07001C032
:100DC000D901CD018E0F9F1FA817B90728F46D9385
:100DD0003197E115F105D9F7C9011F910F910895D8
:040DE000F894FFCFB5
:100DE4002E1E1F202122292D23242526272D2B14B6
:100DF4001A0815174B301C180C121331E00416078F
:100E0400090AF1000B0D0E0F3334641D1B0619057E
:100E14004EF11110363738E5F1E2E335E300000016
:100E2400000000E600000000282C00000000000084
:100E3400E52A0000003A3B3C3D3E00003F40414271
:100E440043000000000000004445000000000000D2
:100E540000000000000000005051524F000000004C
:100E6400000000000000000000000000000000007E
:100E7400000000000000000000000000000000006E
:100E840000000000000000000403090410034500F2
:100E9400720067006F0044006F00780012034B007B
:100EA4006500790062006F0061007200640009024D
:100EB4002200010100803209040000010301010045
:100EC4000921110100012240000705810308000ADD
:100ED4001201000200000040C0167E04010001025D
:100EE400000105010906A101050719E029E715001C
:100EF4002501750195088102950175088101950503
:100F040075010508190129059102950175039101DF
:100F140095067508150026FF000507190029FF81AD
:020F240000C00B
:00000001FF
