:100000000C9456000C9473000C9473000C947300C1
:100010000C9473000C9473000C9473000C94730094
:100020000C9473000C9473000C9473000C94730084
:100030000C9473000C9473000C9473000C94730074
:100040000C9473000C9473000C9473000C94730064
:100050000C9473000C9473000C9473000C94730054
:100060000C9473000C9473000C9473000C94730044
:100070000C9473000C9473000C9473000C94730034
:100080000C9473000C9473000C9473000C94730024
:100090000C9473000C9473000C9473000C94730014
:1000A0000C9473000C9473000C94730011241FBE05
:1000B000CFEFDAE0DEBFCDBF12E0A0E0B1E0EAEBC7
:1000C000FDE002C005900D92A234B107D9F722E0FD
:1000D000A2E4B2E001C01D92A334B207E1F70E948E
:1000E000F3000C94DB060C94000024EA2093BC007F
:1000F00022E030E05091BC00552332F0F9013196F6
:10010000211531059F01B1F72091B9002851203FF9
:1001100018F481E099270895FC018181880F80936C
:10012000BB0084E88093BC0082E090E02091BC009A
:10013000222332F0FC01319681159105CF01B1F7F0
:100140008091B900887F883121F0803411F08832A5
:1001500001F76093BB0084E88093BC0082E090E0EC
:100160002091BC00222332F0FC01319681159105CB
:10017000CF01B1F78091B900887F883129F08034B0
:1001800019F0883209F0C5CF4093BB0084E8809312
:10019000BC0082E090E02091BC00222332F0FC0100
:1001A000319681159105CF01B1F78091B900887F13
:1001B000883129F0803419F0883209F0AACF84E917
:1001C0008093BC0022E030E08091BC0080718030E0
:1001D00041F0C9010196211531059C01812DA1F73E
:1001E00099CF812D97CF2F923F924F925F926F922E
:1001F0007F928F929F92AF92BF92CF92DF92EF92B7
:10020000FF920F931F93CF93DF93CDB7DEB7C15209
:10021000D1400FB6F894DEBF0FBECDBF81E0809312
:10022000420280E88093610010926100569A84B186
:100230008F6084B985B18F6085B98AB18C608AB9C5
:100240008BB18C608BB980B38C7080BB81B3836FB2
:1002500081BB26982E9AE0E0F0E080EA9FE05F0103
:10026000DC0100001197A115B105D9F73196E436EC
:10027000F105B1F71C8A1A8A88E48093B8001092BD
:10028000B90084E08093BC0042E050E0112D012FC2
:1002900000620B8B84EA8093BC00CA012091BC00F1
:1002A000222332F0FC01319681159105CF01B1F77F
:1002B0008091B90088508031812DE8F4802F880F1B
:1002C0008093BB0084E88093BC00CA012091BC00ED
:1002D000222332F0FC01319681159105CF01B1F74F
:1002E0009091B900987F81E0983129F0983219F007
:1002F000903409F0812D139594E99093BC009A01F4
:100300009091BC009071903031F0F9013196211537
:1003100031059F01A9F79A019091BC00907190302E
:1003200031F0F9013196211531059F01A9F780308F
:1003300009F426C0CE014296612D7A01412D0E941A
:100340007500A7018030E1F4CE01429661E04FEFE5
:100350000E947500A701803099F4CE0142966DE0AD
:100360004FEF0E947500A701803051F4CE014296F4
:1003700062E14FEF0E947500A701803009F455C477
:10038000183009F084CF0EE4112DC5019D8F8C8F9C
:100390009B8F8A8F998F888F9F8B8E8B81E0809324
:1003A000D70080E98093D80082E189BDCE014696CE
:1003B0009A83898389B581708030E1F38091D80078
:1003C0008F7D8093D8008091E0008E7F8093E00045
:1003D00088E08093E200D12CDD8ACE014E9648EA77
:1003E00050E06D2D0E9476065E9ACE018A539F4F93
:1003F0009F878E8707969C838B83CE01865E9E4F58
:100400009C878B870696998B888B0D8701600F835D
:1004100021E004E5CD2C3D2D3887DE82CD82809110
:10042000E1008870803079F08091E100877F8093CF
:10043000E1001092E9002093EB001092EC0082E3BF
:100440008093ED0018861092E9008091E800887092
:10045000803009F494C03091F1009091F1008091C6
:10046000F1002091F1004091F1004091F1004091A4
:10047000F1005091F1006091E800677F6093E8001F
:10048000632F66236AF0303009F422C0313209F458
:1004900037C0303409F06EC09F3F09F4CAC36AC048
:1004A000642F7727452F5527542F4427462B572B4A
:1004B000303809F42AC0313809F05CC0963009F0B0
:1004C00059C0223209F056C082E092E060E498C33D
:1004D000953009F42EC0993009F04CC08091E800A5
:1004E0008E7F8093E80081E08093E9008887809385
:1004F000EB0081EC8093EC0082E08093ED003FC044
:100500009A3089F09B3079F035C0963009F41FC0DD
:10051000983009F02FC08091E80081708030D9F3C5
:1005200088858093F1008091E8008E7F8093E800B9
:1005300026C09091E8009E7F9093E8009091E8009B
:1005400091709030D9F380688093E30018C0213017
:1005500009F44FC3223009F450C3233059F48030DA
:1005600009F452C3813009F453C3823019F48CEB7F
:1005700091E041C38091EB0080628093EB008E8517
:100580009F8561E044E550E00E9476068B819C8166
:10059000F50125B12F6025B92BB12C602BB9E330C3
:1005A000F10544F4E115F10569F0E130F10571F46C
:1005B0004DEF0DC0E330F10539F0E430F10549F4B9
:1005C0004BEF08C04EEF03C047EF01C04BEFA5E271
:1005D00002C047EFABE2B0E09F016E857F85260F3A
:1005E000371F255A3F4F31965C9154235C9344E169
:1005F00000004A954030E1F75FB1452F43705695B2
:1006000056955C73542B43B14074452B512DDC013E
:10061000642F752F7A9512F06695FCCF61706C93FC
:1006200053951E96A217B30799F70196E630F10588
:1006300009F0AFCF85B18F6085B98BB18C608BB974
:10064000DE01AA53BF4F2D01212F7D2D672E75018D
:10065000722E822F813041F4C70187704EEF8A9548
:100660002AF0440F411DFBCF9FEF1EC04D01CE016C
:10067000429662E10E9475008030C1F0962D9395FC
:1006800081E0392F903021E0D40109F0212D9FEF36
:1006900020307FEF09F4732F7C8B7A3008F4B1C0DF
:1006A0001A8A712C112D672E812DACC088E242E090
:1006B00050E000008A958030E1F784EA8093BC0026
:1006C000CA01D4012091BC00222332F0FC013196F2
:1006D00081159105CF01B1F78091B9008851803F14
:1006E00008F4AFC08D858093BB0084E88093BC0084
:1006F000CA012091BC00222332F0FC013196811501
:100700009105CF01B1F78091B900887F883129F038
:10071000803419F0883209F094C083E18093BB00E3
:1007200084E88093BC00CA012091BC00222332F0EF
:10073000FC01319681159105CF01B1F78091B90087
:10074000887F883129F0803419F0883209F079C027
:1007500084EA8093BC00CA012091BC00222332F0BD
:10076000FC01319681159105CF01B1F78091B90057
:100770008851803F08F465C08F818093BB0084E876
:100780008093BC00CA012091BC00222332F0FC01FE
:10079000319681159105CF01B1F78091B900887F1D
:1007A000883129F0803419F0883209F04AC084E891
:1007B0008093BC00CA012091BC00222332F0FC01CE
:1007C000319681159105CF01B1F78091B900887FED
:1007D000883509F036C09091BB0084E98093BC0055
:1007E0009A018091BC008071803031F0F90131961E
:1007F000211531059F01A9F71C8A81E0712D612C1B
:1008000001C0672EF7019F01A201240F351F2C5A4A
:100810003F4F31967F01412D6D01592F642F6A950D
:1008200012F05695FCCF51705C9343951E96A2171B
:10083000B30799F7D601119697012730310551F08A
:1008400009CF962D939581E0392F903021E009F062
:100850001DCF1DCF7A87113031F4CE01429662E16F
:100860004FEF0E9475009E01225E3F4FFE01EA534A
:10087000FF4FD901C50161E0872CAC019EE0590210
:10088000802D11243A01499F912D1124980F492F51
:100890005527542F4427802D9927842B952B820F81
:1008A000931F0E967F012F016D01FD01D2014D9125
:1008B0002D01DF01AC5ABF4F5081451739F45C91CF
:1008C00053955C93553018F0462740831C9231961F
:1008D000E817F90759F7F7013E96D6011E96C301AE
:1008E00001968630910509F0C8CFBE01625E7F4F48
:1008F000FB01A0E0B1E0C5016C019C019EE0390262
:10090000802D11242901299F912D1124980F292F21
:100910003327322F2227802D9927822B932B860F66
:10092000971F0E967F013D012191203071F04C916F
:10093000403F58F0242F205F3327C216D30608F01B
:100940009601423F08F0960169011196E817F907F0
:1009500059F7F7013E96D3011E96C20101968630E3
:10096000910509F0CACF7B018986C5010FB6CE512A
:10097000DF4F9FAF8EAFC25ED0400FBE0FB6C052EA
:10098000DF4F9FAF8EAFC05ED0400FBE0FB6C252DA
:10099000DF4F9FAF8EAFCE5DD0400FBE0FB6C452BB
:1009A000DF4F9FAF8EAFCC5DD0400FBEFC01DC01AE
:1009B0009EE0B902802D1124A99F912D1124980F3A
:1009C000892F9927982F8827202D3327282B392BDB
:1009D000A701420F531F20503F4F490111961501A7
:1009E0002D013F01F101CF01DA01A80FB91F2C91B0
:1009F0003196213009F02CC01F01F401E80FF91FD6
:100A000096012230310508F007C18E30910508F0BB
:100A100008C13002A02D1124209FB12D1124BA0F3E
:100A20006B2F7727762F6627A02DBB27A62BB72BFA
:100A3000AE0FBF1F1C912115310519F01030950123
:100A400001F31030F10121F0113011F0103F28F0C6
:100A50008D30910509F0C7CF2FC0212F287F203E70
:100A600051F4177021E068897989F301D2011A9550
:100A700082F0220FFCCFF301E630F10530F4AB85B4
:100A8000BC85AE0FBF1F1C93319668897989D2014E
:100A90000FC00FB6CE51DF4F3EADC25ED0400FBE8D
:100AA000322B0FB6CE51DF4F3EAFC25ED0400FBEED
:100AB0008D30910529F094CF68897989F301D201AD
:100AC000A630B10509F074CF88858130DA8409F049
:100AD0007DC00FB6CE51DF4F1EADC25ED0400FBEFF
:100AE0008D819E811817D9F40FB6CD51DF4F8EAD91
:100AF000C35ED0400FBE2D813E81831781F4CE01AD
:100B0000865E9E4F69817A8146E050E00E947A06B7
:100B100068897989DA848115910509F457C081E0E3
:100B20008093E90081E090E02091E800207220307D
:100B300051F4019621E08115910509F0212D2170D4
:100B4000203091F343C01093F1000FB6CD51DF4F29
:100B50008EADC35ED0400FBE8093F100DE01A65E75
:100B6000BE4F8D918093F100A617B707D1F7809102
:100B7000E8008E778093E8000FB6CE51DF4F8EAD40
:100B80009FADC25ED0400FBE9E838D839D8F8C8FA4
:100B90000FB6C052DF4F8EAD9FADC05ED0400FBECE
:100BA0009B8F8A8F0FB6C252DF4F8EAD9FADCE5D49
:100BB000D0400FBE998F888F0FB6C452DF4F8EADD5
:100BC0009FADCC5DD0400FBE9F8B8E8B19858BB1B6
:100BD0008F7B912F9295907F990F990F982B9BB9AE
:100BE00080EA9FE021E00000019781159105D9F787
:100BF00016CC80EF91E062E103C08EEC91E062E2FE
:100C000070E00E942306BBCC88EA91E064E0F8CF54
:100C10008CEA91E060E1F4CF62E070E0C9010E94EB
:100C200021066EE070E00E94210611E01A8B000F91
:100C3000ACCB8091E8008E7F8093E8000E9448064C
:100C4000FFCF0E942006DC0146175707CA0108F0B3
:100C5000CB014115510589F02091E8002170203029
:100C6000D9F32D912093F100019781159105C9F7D2
:100C70008091E8008E7F8093E8008091E800847086
:100C80008030D9F38091E8008B7F8093E80008954D
:100C9000F89481E08093E00080E28093D80080E2C5
:100CA0009EE40000019781159105D9F71DBA1CBC7F
:100CB00010BE1FBA10927A0010926E0010926F0050
:100CC00010927100109272001092C9001092BC0034
:100CD00014B815B817B818B81AB81BB81DB81EB88C
:100CE00010BA11BA0C94003F0E9479060E94960631
:100CF0000895FFCF0E947D060895FA01DC01E115F9
:100D000080E090E0F10589F0AD01DB012D91BD019E
:100D1000DA013D91321719F43197E115F3CF422FE3
:100D20005527832F9927841B950B08950F931F93A5
:100D3000FA019C01E031F10508F42DC08F01A901F1
:100D400041705070C901840F951F2817390738F476
:100D5000DA01F90161931197A115B105D9F7D8010D
:100D6000A41BB50B8D01AE7FA80FB91F8A179B0777
:100D700070F4FB01F070AB01542F44274E2B5F2B16
:100D8000FC015183408302968A179B07C8F3F80140
:100D9000E170F07001C0D901CD018E0F9F1FA8171F
:100DA000B90728F46D933197E115F105D9F7C90119
:0A0DB0001F910F910895F894FFCFF2
:100DBA002E1E1F202122292D2324252627002B140D
:100DCA001A0815172F301C180C121331E0041607D5
:100DDA00090A00000B0D0E0F3334E11D1B0619051D
:100DEA00F1F11110363738E535E2E3000000000072
:100DFA00000000E6000000002A4C0000000000008D
:100E0A00282C0000003A3B3C3D3E00003F40414256
:100E1A0043000000000000004445000000000000FC
:100E2A0000000000000000005051524F0000000076
:100E3A0000000000000000000000000000000000A8
:100E4A000000000000000000000000000000000098
:100E5A00000000000000000004030904100345001C
:100E6A00720067006F0044006F00780012034B00A5
:100E7A006500790062006F00610072006400090277
:100E8A00220001010080320904000001030101006F
:100E9A000921110100012240000705810308000A07
:100EAA001201000200000040C0167E040100010287
:100EBA00000105010906A101050719E029E7150046
:100ECA00250175019508810295017508810195052D
:100EDA00750105081901290591029501750391010A
:100EEA0095067508150026FF000507190029FF81D8
:020EFA0000C036
:00000001FF
